:020000022000DC
:1060000000000120E1620200096302000B6302004C
:106010000D6302000F630200116302000000000024
:1060200000000000000000000000000013630200F8
:1060300015630200000000001763020019630200EC
:10604000259402001B630200AD9902001B6302004D
:106050001B6302001B630200859402001B630200A5
:106060001B6302001B6302001B6302001B63020030
:106070001B630200A57803001B6302001B63020080
:106080001B630200D17302001B6302001B6302004A
:10609000717402001B630200E1DB02001B6302005B
:1060A0001B6302001B6302001B6302001B630200F0
:1060B0001B6302001B6302000000000000000000E0
:1060C0001B6302001B6302001B6302001B630200D0
:1060D0001B6302001B6302001B6302000000000040
:1060E00000000000000000000000000000000000B0
:1060F00000000000000000000000000000000000A0
:10610000000000000000000000000000000000008F
:10611000000000000000000000000000000000007F
:10612000000000000000000000000000000000006F
:10613000000000000000000000000000000000005F
:10614000000000000000000000000000000000004F
:10615000000000000000000000000000000000003F
:10616000000000000000000000000000000000002F
:10617000000000000000000000000000000000001F
:10618000000000000000000000000000000000000F
:1061900000000000000000000000000000000000FF
:1061A00000000000000000000000000000000000EF
:1061B00000000000000000000000000000000000DF
:1061C00000000000000000000000000000000000CF
:1061D00000000000000000000000000000000000BF
:1061E00000000000000000000000000000000000AF
:1061F000000000000000000000000000000000009F
:1062000010B5054C237833B9044B13B10448AFF3F0
:1062100000800123237010BD0C2D00200000000021
:1062200040EB03000C4B43B10C480D4910B5AFF3E4
:1062300000800C48036823B910BD0A48036833B9CD
:106240007047094B002BF7D0BDE810401847064BAC
:10625000002BF5D0184700BF0000000040EB030002
:10626000102D0020F42C002000000000154B002B06
:1062700008BF134B9D46A3F5803A00218B460F467D
:106280001348144A121A14F033FE0F4B002B00D09F
:1062900098470E4B002B00D09847002000210400A7
:1062A0000D000D48002802D00C48AFF3008014F018
:1062B000B1FD2000290004F05FFF14F097FD00BF3E
:1062C00000000800000001200000000000000000A5
:1062D0000C2D002078690020000000000000000064
:1062E0000649074A074B9B1A03DD043BC858D050A8
:1062F000FBDC02F08DFDFFF7B9FF0000FCEC0300B2
:10630000982A00200C2D0020FEE7FEE7FEE7FEE7BE
:10631000FEE7FEE7FEE7FEE7FEE7FEE7704700BFA9
:1063200000B583B0044B0093044A402300F036F8D4
:1063300003B05DF804FB00BF416302002C2D002078
:1063400002B32DE9F843114B114E8846144643F031
:10635000010903270025224608EB0501002004F06F
:106360004BFF03461D444FF47A40E41A23B93378B7
:1063700033B1C847013F06D001233370002CEAD166
:10638000BDE8F88370473770BDE8F88300B40300B8
:10639000282D0020704700BF04F0F2BFF0B595B083
:1063A000002415460F4608461E4602F099FA384664
:1063B00023460822089505A91A9D09960D950A9469
:1063C0008DF82C400C9402F0E7FA9DF814300798F1
:1063D00006998DF8114003F00302012A02900391FF
:1063E00028D0022A04D0384602F07EFA15B0F0BD5B
:1063F000BDF81650C3F3C2038DF81030C5F38915EC
:106400000826082D2C4628BF0824334622460EA90C
:10641000384602F0C1FA2D1B214608AB02AA0EA88D
:10642000264400F0A1FE002DEBD1384602F05CFAC4
:1064300015B0F0BDBDF81460059DC6F38316C3F317
:10644000C204B2000EA9384608238DF81040C5F3E7
:10645000952502F0A1FA08AB0093324628460EA912
:1064600002AB00F0DBFDBEE708B5FFF795FF0421A6
:10647000034800F08BFD034B01225A7108BD00BF99
:10648000E4EC0300982A0020F0B5334D85B005F503
:10649000836001F023FE05F2144001F01FFE6B68DB
:1064A000AE6803EA0600C11C05EB810215F8214025
:1064B00014F004040ED0117801F0030101293BD03F
:1064C000022903F1020700F1030126D005EB810246
:1064D000002CF0D105EB80005A1CC16801913240BC
:1064E00005EB820201F00301D2680292012903F157
:1064F000020429D0022925D1BDF80630BDF80A6072
:10650000C3F38913033304EB9304144801F0F4FD3F
:1065100000B16C60304605B0F0BD538807EB9313B3
:1065200006EA0300C11C05EB810215F8214004F0C6
:106530000404002CBFD1CDE711880233C1F38311CD
:106540000B44EDE70026E0E7BDF80430BDF80A6033
:10655000C3F383131C44D8E73C2E002050320020A4
:106560000B4B0C4810B50022FF21C3F8182499608A
:106570001A605A60C3F8142483F8202402F066F9E4
:10658000044610B9044802F06FFB204610BD00BF5E
:106590003C2E0020E8EB030024B4030021B9114B8A
:1065A00003EBC0000068704730B40F4A0D4C121B5B
:1065B000D2080CD00D4D2B88834210D0002303E06D
:1065C00035F82310814205D001339A42F8D10020DA
:1065D00030BC704704EBC300006830BC70472046F5
:1065E000FAE700BF04EC0300E4EC03000C2D0020EC
:1065F000094B013903EBC00003290BD8DFE801F098
:1066000002080604022070474079704700797047FD
:10661000042070470020704704EC030030B5164B8F
:1066200093F8203483B0044603BB08B314F02CFD68
:1066300002AA013042F8080D012301A90F4802F017
:1066400021FB0546A0B92146009A019814F045FCAB
:106650009DE80C001344094803F8015C009902F01E
:106660005DFB0099054802F073FB019803B030BD53
:10667000002003B030BD00BF3C2E002024B4030036
:106680002DE9F047944C94E80C009A4284B000F055
:10669000BB800023C4F81834BFF34F8F6368A5682C
:1066A00003EA0501CA1C04EB820614F822205007F5
:1066B0001AD52768327802F00302012A44D0022A50
:1066C00003F1020202D1738802EB931305EA03017E
:1066D000D4F81804CA1C04EB820628B99F4239D9A1
:1066E00014F822205207E5D404EB81015A1CC96832
:1066F00001912A4004EB820201F00301D268029268
:10670000022903F1020829D0012900F08180D4F880
:1067100010543DB12B6828469B689847EB681D686C
:10672000002DF7D16D486E4B6E49C01AC0080004A9
:1067300040F0020000F0DCF860682368C01A18BF5F
:10674000012004B0BDE8F08732880233C2F383121F
:106750001344BBE7676004B0BDE8F087BDF80630BE
:106760006148C3F389194F46502FA8BF502767F3DC
:106770008F1307F10801ADF8063002F069F80646FC
:106780000028C4D025EA080A0AF1010A02F0A8F894
:106790004FEA8A0A0023082201A9304602F0C6F80F
:1067A000574572D9BAF1000F7ED13A4608234F49B6
:1067B000304602F0BBF809F1030708EB9707D4F85D
:1067C0001834002B6CD1D4F810545DB1EB685A79B1
:1067D000314628461AB12B681B689847EB681D683C
:1067E000002DF3D1304602F07FF804A8002300F812
:1067F0000D3D01F09FFAD4F8183403B967609DF895
:10680000030001F0BDFA97E7002004B0BDE8F0876F
:10681000BDF804303448C3F38312062A28BF062289
:10682000911C62F389138900ADF8043002F010F86E
:10683000064600283FF46BAF02F052F8002308220E
:1068400001A9304602F072F8BDF8043013F4707FED
:106850003FD04FF0000A4FF0080905EA0801033164
:106860004B4604EB81010422304602F05FF8BDF88C
:1068700004300AF1010AC3F3831308F101075345F9
:1068800009F10409B846E8D899E705EA0801033197
:1068900004EB81013A460823304602F047F88AE7C4
:1068A000304602F021F847E705EA08010331A7EB7B
:1068B0000A0504EB810152463046EDB2082302F08E
:1068C00035F82A460AF108030849304602F02EF846
:1068D00071E7474673E700BF3C2E002034EC03000D
:1068E00004EC030030B40300E8EB0300482E002062
:1068F0002DE9F04383B002AB002203F8012DDFF84D
:10690000E090074618468846D9F8085001F012FA78
:10691000D9F80820D9F80430D9F8006013440133BD
:106920009B1B012B57D809F21C440121204601F082
:10693000ABFBFFF7A9FD0146204601F0A5FB99E856
:106940000A00D9F80820134401335B1A012BECD953
:1069500001240A40033244F004036FF38913023127
:106960009DF8070049F82230C9F8001001F008FA34
:1069700000211A4801F044FB80F3100033192B402A
:1069800009EB830300043540033540EA1740D86023
:1069900019F8253067F3C50309F8253039F8253093
:1069A0006FF3891329F8253059F8252068F39F22C1
:1069B000134664F301036FF3820349F8252009F8B5
:1069C000253099F820341BB1FFF75AFE0028FBD17F
:1069D00003B0BDE8F0833146BAE700BF583200206B
:1069E0003C2E00202DE9F04782B002AB002403F8D2
:1069F000014D374C8046184692468946A56801F0FD
:106A000099F9A2686368276813440133DB1B022BE2
:106A10005BD804F21C460121304601F035FBFFF73C
:106A200033FD0146304601F02FFB94E80A00A268CE
:106A3000134401335B1A022BEDD901260A400332BD
:106A400046F0040366F3891344F8223003319DF8BD
:106A50000700216001F094F9BB1C2B4004EB830379
:106A600000211C48C3F80CA001F0CAFA80F3100002
:106A7000BB192B4004EB830300043D40033540EA7F
:106A80001840D86014F8253068F3C50304F82530A1
:106A900034F8253066F3891324F8253054F825207E
:106AA00069F39F22134666F301036FF3820344F8F0
:106AB000252004F8253094F820341BB1FFF7E0FDC1
:106AC0000028FBD102B0BDE8F0873946B5E700BF2A
:106AD0003C2E0020583200202DE9F04F85B004AD47
:106AE000002405F8014D3C4C01938046284693460E
:106AF0008946A66801F01EF9A268636827681344F6
:106B00000133DB1B032B65D804F21C450121284609
:106B100001F0BAFAFFF7B8FC0146284601F0B4FAD2
:106B200094E80A00A268134401335B1A032BEDD9E1
:106B300001250A4003324FF0020A45F004036AF3CC
:106B4000891344F8223004319DF80F00216001F0D0
:106B500017F907EB0A0EFA1C0EEA060E324004EB98
:106B6000820204EB8E0E019B1C48CEF80CB0002173
:106B7000D36001F045FA80F310007A19324004EB3B
:106B8000820200043E40033640EA1840D06014F808
:106B9000262068F3C50204F8262034F826206AF37C
:106BA000891224F8262054F8262069F39F221346E0
:106BB00065F301036FF3820344F8262004F82630BE
:106BC00094F820341BB1FFF75BFD0028FBD105B022
:106BD000BDE8F08F3946ABE73C2E0020583200204C
:106BE0002DE9F04F85B004AD002405F8014D404C6F
:106BF0000193804628468946A668934601F09AF894
:106C0000A168636827680B440133DB1B042B6CD835
:106C100004F21C450121284601F036FAFFF734FC46
:106C20000146284601F030FA94E80C00A1680B44B4
:106C300001339B1A042BEDD9012511404FF0030AB3
:106C4000033145F004036AF3891344F82130053217
:106C50009DF80F00226001F093F8B81C07EB0A0EB4
:106C600030400EEA060E3A1D324004EB800004EB81
:106C70008E0E04EB8202019BC0F80CB00021CEF80E
:106C80000C301C480E9BD36001F0BAF980F3100061
:106C90007A19324004EB820200043E40564440EA36
:106CA0001840D06014F8262068F3C50204F82620A6
:106CB00034F826206AF3891224F8262054F8262076
:106CC00069F39F22134665F301036FF3820344F8CF
:106CD000262004F8263094F820341BB1FFF7D0FCAE
:106CE0000028FBD105B0BDE8F08F3A46A4E700BF0D
:106CF0003C2E0020583200202DE9F04F89B008AD1D
:106D0000002405F8114D474C129F05938046994683
:106D10002846139B0697924604920793A6688B46D3
:106D200001F008F8A2686368276813440133DB1B8D
:106D3000052B75D804F21C450121284601F0A4F961
:106D4000FFF7A2FB0146284601F09EF994E80A00ED
:106D5000A268134401335B1A052BEDD90A400125C3
:106D6000D31C45F0040E042262F3891E44F823E08C
:106D700006319DF80F000192216001F001F8B91C65
:106D800007F1030C07F1040E31400CEA060C0EEA81
:106D9000060E7B1D334004EB810104EB8C0C04EBED
:106DA0008E0E04EB8303129AC1F80CA01E48CCF897
:106DB0000C900021CEF80C20139ADA6001F020F933
:106DC00080F310007B19334004EB830300043E4042
:106DD000033640EA1840D86014F82630019A68F368
:106DE000C50304F8263034F8263062F3891324F8FA
:106DF000263054F826206BF39F22134665F30103D7
:106E00006FF3820344F8262004F8263094F82034E7
:106E10001BB1FFF735FC0028FBD109B0BDE8F08FAE
:106E200039469BE73C2E0020583200202DE9F04FD8
:106E30008BB00AAD002405F8194D05939946159BB2
:106E4000504C0793169B149F08938046179B0697F8
:106E50002846924604920993A6688B4600F06AFF82
:106E6000A2686368276813440133DB1B072B00F219
:106E7000868004F21C450121284601F005F9FFF740
:106E800003FB0146284601F0FFF894E80A00A268D7
:106E9000134401335B1A072BEDD90A400125D31C9B
:106EA00045F0040E062262F3891E44F823E00831FF
:106EB0009DF80F000192216000F062FFB81C304085
:106EC000F91C07F1040C31400CEA060C04EB8000BD
:106ED00007F1050E0EEA060E04EB810104EB8C0CA3
:106EE000BB1DC0F80CA0149AC1F80C90334004EB01
:106EF0008E0E07F1070ACCF80C2004EB8303159AD9
:106F0000CEF80C200AEA060A169ADA6004EB8A0A1E
:106F1000179B1D48CAF80C30002101F071F880F36E
:106F200010007B19334004EB830300043E4003361A
:106F300040EA1840D86014F82630019A68F3C50377
:106F400004F8263034F8263062F3891324F826300A
:106F500054F826206BF39F22134665F301036FF369
:106F6000820344F8262004F8263094F820341BB11C
:106F7000FFF786FB0028FBD10BB0BDE8F08F394648
:106F80008BE700BF3C2E00205832002030B4174D54
:106F9000D5F8104400215CB1E3681A798A4204D123
:106FA00016E0DB681A798A4212D01B68002BF8D1F0
:106FB000C3681971D5F8103493B1DA68C3681268E0
:106FC0001A60D5F81034DB681860084630BC70478A
:106FD00001310A29DFD14FF0FF31084630BC70473C
:106FE000C5F81004C2681360EFE700BF3C2E002014
:106FF00038B5094BD3F81044012583F820544CB11F
:10700000E3685D71236820465B689847E3681C6805
:10701000002CF5D138BD00BF3C2E00202DE9F047F3
:1070200084B01D460C9C002394F80C802373EB88DD
:1070300081460E461746002B3BD1297A05290FD0F1
:107040006B7A002B3DD1404BA88853F821A000213A
:10705000FFF7A4FA524603463C49204601F0D4F813
:10706000062F0FD8DFE807F0484D535A0463390064
:10707000F168B06896E80C000191009049462046FE
:1070800001F0C2F82B7A052B05D06B7A5BB9304939
:10709000204601F0B9F8204601F0AAF884F80C80E7
:1070A00004B0BDE8F0872B4A2B49204601F0ACF82C
:1070B000EDE7284A00922949294A204601F0A4F820
:1070C000BBE7A888FFF794FA264B234953F8202002
:1070D000204601F099F8297AB5E77069316996E898
:1070E0000C000390B068F76802918DE88100494672
:1070F000204601F089F8C5E74946204601F084F8AA
:10710000C0E732684946204601F07EF8BAE74946B2
:1071100096E80C00204601F077F8B3E7B16896E8EE
:107120000C0020460091494601F06EF8AAE7B068CD
:10713000F768316996E80C0002918DE881004946B4
:10714000204601F061F89DE7B8B40300A8B403003D
:10715000B4B40300A0B40300F0D6030088B4030065
:1071600080B4030048B40300082900D970472DE912
:10717000F04F1D46904600232A7B2B7385B0B8F84C
:107180000630039207460E46002B6BD198F8081084
:10719000052911D098F80930002B6BD13C4BB8F879
:1071A000040053F821400021FFF7F8F92246034676
:1071B0003849284601F028F8DFF8F8B0DFF8F890F1
:1071C0000024A642494628463ED93A5D013401F0E2
:1071D0001BF8082CF5D13049DFF8E090DFF8E0B07B
:1071E000284601F011F8002411E017F804A013F06C
:1071F00035FE50445946437813F0970F14BF52465A
:107200002E222846013400F0FFFF082C08D0A642A9
:1072100049462846E9D8013400F0F6FF082CF6D19B
:1072200098F80830052B02D098F80930A3B91B490B
:10723000284600F0E9FF284600F0DAFF9DF80C3000
:107240002B7305B0BDE8F08F01345946284600F095
:10725000DBFF082CB5D1BEE7114A1249284600F0E1
:10726000D3FFE4E70E4A00920F49104A284600F087
:10727000CBFF8BE7B8F80400FFF7BAF90C4B0949CC
:1072800053F82020284600F0BFFF98F8081085E743
:10729000B8B40300A8B4030078B40300B4B4030086
:1072A000A0B40300F0D6030088B4030080B4030048
:1072B00048B4030074B403006CB40300B0B403001A
:1072C0007CB4030000B585B000230390194601AAE1
:1072D00044F201000193029300F004F805B05DF858
:1072E00004FB00BF10B572B6FFF782FEFFF7C8F9C6
:1072F0000028FBD1104B114C1149E41AE408240476
:1073000044F00100FFF7F4FA0E4B1B68DB0700D5D1
:1073100000BE44F002000C49FFF7EAFABFF34F8FBA
:107320000A490B4BCA6802F4E0621343CB60BFF317
:107330004F8F00BFFDE700BF04EC030034EC0300F7
:1073400024B50300F0ED00E030B5030000ED00E0EF
:107350000400FA0559B10AB909207047531E1A40B2
:10736000FAD1826001608380C260104670470E20AF
:10737000704700BF10B48468C26803468088121B3F
:10738000904203D204205DF8044B7047DA681C6811
:1073900002400020A154DA680132DA605DF8044B43
:1073A000704700BF03468068DA6890420DD010B481
:1073B00098689A881C6802400020A25C0A709A684B
:1073C00001329A605DF8044B70470520704700BF9A
:1073D000F8B5204A204B0025C2F84051C2F844516C
:1073E000C2F84851C2F84C51C2F80051C2F80451D9
:1073F0001B6813B31949D2F804450A68A41A1A681D
:1074000024F07F44A2422F4609D8197CDE69A41AD1
:10741000154499B91EB133461A68A242F5D91049EC
:10742000104A0B7812789A420DD00F490F4A41F852
:1074300023504FF48013C2F80031F8BD1F745A690D
:1074400098699047E6E7531CDBB2022B08BF002384
:107450000B70EAE7001001401834002014340020BB
:1074600011340020103400200834002000E100E036
:107470002DE9F04FB74AB84913780978994285B099
:1074800033D00133DBB2022B08BF0023B3481370A3
:10749000B34A0768DFF8E08252F82320D8F80010DA
:1074A000BB18002423F07F43036025462046A646F0
:1074B000A9B10B68934200F27D81CC68C1F800E06D
:1074C000D21A1844CB6934B13E1826F07F46CD61FC
:1074D0008C604E600D46194601240029E9D1002C2C
:1074E00040F0A5814FF0010B05E0DFF88C8200250C
:1074F000D8F80010AB469B4B9B4FDFF8809243F0CF
:10750000010300930E464FF0000A002D2DD0D5F850
:1075100004E0D5F808C02C46ED69904B93481B68F1
:10752000AEEB030222F07F42824255D802EB0C03FD
:107530002360002201206260A260E2612074002EBC
:107540006BD03068834261D9B64603E01068984238
:107550004CD29646DEF81C201B1A002AF6D1236076
:10756000E261CEF81C40002DD1D197F801C097F808
:1075700000E0F44571D0734603EB43030EF10100C4
:10758000BA7807EBC3035FFA80FE7245187987F873
:1075900000E004BF4FF0000E87F800E002289A6870
:1075A0004CD003283DD00128E3D1107C0028E0D145
:1075B000D3F80CE0C2F804E0D3F810C0C2F808C059
:1075C00014465A69E26099F800209B69A361002A79
:1075D000A3D060608646A0E7A3EB0E0323F07F43B1
:1075E00063450AD2ACEB03032360A2E7C01A106024
:1075F0002360E261CEF81C40B5E70023012223603E
:107600006360A360E36122743EB13068C8F8004053
:10761000C31A3360E661264677E7C8F8004026467D
:1076200073E7002EA5D0002200E01E46F3693274F5
:10763000002BFAD1C8F800301E4696E74EB1B24290
:10764000344603D1BDE09A4260D01C46E369002B6A
:10765000F9D100231374F4458DD1BAF1000F02D192
:107660008E4200F09D80002E00F0C5803B4B404ACA
:107670001C68D2F80475DFF80881D6F800A098F8E5
:1076800000103B1B23F07F43DD1CA9B93949354B62
:107690004FF48030C2F844030126C2F804034FF4CB
:1076A0000030C1F8800143F00103086016604FF418
:1076B0003C60984788F80060AA452CBF04EB0A0399
:1076C00063192B4923F07F43C1F84035D1F80425D5
:1076D000D21BDB1B22F07F4223F07F4303329A420E
:1076E0000ED9204BD1F80425C1F8402543F0010301
:1076F0004FF43C6098471F4B4FF40032C3F8002111
:10770000002389F8003005B0BDE8F08FA24239D0DF
:10771000D2F81CE01368C4F81CE0BEF1000F11D0D1
:107720003046DEF800402344CEF80030864209D0CF
:10773000002397F800E097F801C0137406464FF055
:10774000010A88E7002397F800E097F801C0137456
:1077500081E700BF103400201134002014340020D1
:107760000834002040B50300F8320020FEFF7F00FF
:107770000010014000E100E0183400200434002033
:10778000053400201346F069C8F80000D8B1D3F8DA
:107790001CE01B68C4F81CE0BEF1000FC1D1C5E7B6
:1077A000BBF1000F7FF45FAF002389F8003005B014
:1077B000BDE8F08F002C3DD19B1A0B604FF0010B00
:1077C00099E63346DFE701931C4BDFF87CC0039258
:1077D0004FF0010E0291C3F808E0009BCCF80000C6
:1077E00089F800E04FF43C609847D8F80000019B0E
:1077F0000299039ACBE7114D114A124C4FF4803392
:107800004FF400310127C2F880103C43C5F84833DB
:107810004FF43C60C5F808336F60A0470A4BAF6077
:107820004FF43C601E60A047084B1E7068E7C8F824
:10783000001057E6C8F80010BEE700BF0010014076
:1078400000E100E040B503001434002005340020BE
:107850002DE9F8431F4D204E204FDFF898804FF45C
:1078600080334FF400324FF001090024C6F8802025
:1078700047EA0907C5F848334FF43C60C5F80833B8
:10788000C5F80490B847C5F808904FF43C60C8F8B4
:107890000040B847124B13481349144A1C70144B4C
:1078A00004600C7014704FF48011C0220B2098708B
:1078B0001C705C70C6F8801186F814233160C5F81E
:1078C000084586F81123D5F80435C8F8003020465D
:1078D000BDE8F8830010014000E100E040B503007E
:1078E000053400201834002010340020113400200A
:1078F000F832002014340020074B9B780BB9082085
:1079000070473AB130B10368187C0028F7D1597438
:107910005A61704707207047F83200202DE9F04384
:10792000264CA37883B01BB9082003B0BDE8F083D0
:107930000028F9D0042903D8072003B0BDE8F0835C
:107940004369002BF0D0064602A8737C0025012B6A
:1079500000F8015D0CBF8946A94690460F4600F02D
:10796000E9F96378A07821785A1CD2B2904208BF16
:107970002A4691421BD003EB430304EBC3030120CF
:107980000F4918719E60D1F804159DF80700D96061
:107990001F61C3F81490C3F81880627000F0F0F90A
:1079A000084B4FF480122846C3F80021BDE79DF82C
:1079B000070000F0E5F90420B7E700BFF832002027
:1079C0000010014000E100E070B51B4CA37882B0CC
:1079D00013B9082002B070BD0028FAD04369002B0B
:1079E000F7D0064602A8002500F8015D357400F0C6
:1079F000A1F96278A0782178531CDBB2984208BFC5
:107A00002B46994212D002EB420204EBC202022141
:107A10009DF8070096601171637000F0B1F9074B93
:107A20004FF480122846C3F80021D3E79DF80700E1
:107A300000F0A6F90420CDE7F832002000E100E0D4
:107A4000014BD3F80405704700100140401A20F0A4
:107A50007F40704730B50478012C83B027D017D30E
:107A6000022C13D1384B394D1A78C168AA5C0191A8
:107A70008DF80040002A37D103F10C00012234496F
:107A800002F0DEF9334B68461B68984703B030BDFF
:107A900031493248FFF786FC00282BD002A8032387
:107AA00000F8083D2B4B1B68984703B030BD436876
:107AB0002B4D19782846FFF75DFC30BBAA68EB68B0
:107AC0009A4206D002AB234A03F8080D1268184602
:107AD0009047A968EB68AA885B1A9A421DD2214B8D
:107AE00001221A7003B030BD181D0122184902F09E
:107AF00035FCC7E71448154A0378D35CF3B9012273
:107B000015490C3002F02CF9C0E7124B01908DF8AA
:107B100000401B6868469847DBE70B480B4A037830
:107B2000D35C2BB901220A490C3002F089F9ADE788
:107B300001220749043002F011FCA7E7012206499F
:107B4000043002F0AFFBA1E7A02A0020F868002073
:107B5000443400201C3400204834002034340020F9
:107B600020340020303400202DE9F045324C89B01B
:107B70002260002955D00C4680468A882F48096823
:107B80009A46FFF7E7FB10B109B0BDE8F085A2897E
:107B9000A1682B48FFF7DEFB0028F5D1294D98F8A6
:107BA00010E0294ED8F814700FCD6C460FC495E83C
:107BB0000F0098F811501EF1000E18BF4FF0010E83
:107BC000002D84E80F0014BF0E220022D8F80040D8
:107BD000D8F80430D8F808508DF815200697694673
:107BE000D8F80C70194A8DF81CA030468DF814E0B6
:107BF000029703958DE8180001F0A6FB0028C3D179
:107C0000D8F80030124A01331070BDD0114A3378D1
:107C1000D35C53B906F10C0001220F4902F010F9B0
:107C2000B2E7072009B0BDE8F085301D01220A49FE
:107C300002F094FBA8E700BF1C3400202034002091
:107C40003434002048B50300A02A0020557A0200F1
:107C500030340020F86800204434002070B5124C05
:107C6000014612482678FFF79DFB05460EB92846C7
:107C700070BD0F480F4A0378D35C0022227053B9BD
:107C80000C3001220C4902F0DBF80028EFD0FFF79E
:107C900019FB284670BD04300122074902F05EFB43
:107CA0000028E4D0F3E700BF303400202034002067
:107CB000A02A0020F86800204434002070B5014656
:107CC0001648FFF757FB044608B1204670BD144D17
:107CD000144E2B78F35CABB905F10C0002F0A4F85C
:107CE0000028F2D110490D48FFF75CFB0028ECD1C9
:107CF0002B780D49F35C012253B90C48BDE8704064
:107D000002F02EB8281D02F01BFB0028DDD1E9E7A8
:107D10000748BDE8704002F0C5BA00BF3434002007
:107D2000A02A0020F868002048340020AC2A002057
:107D3000A42A002070B4EFF3108472B60D4B9A6839
:107D4000AAB90D490D4E01259D60D1F880503540EE
:107D50001D60C1F88060D1F884505D604FF0FF3342
:107D6000C1F88430027004B962B670BC7047012358
:107D70000370F8E7EC68002000E100E0FC06FFBDBE
:107D8000094B9A6872B168B910B4EFF3108272B6F9
:107D900006491C680C605C684C60986002B962B669
:107DA0005DF8044B704700BFEC68002000E100E084
:107DB00099B110B4B2FBF3F403FB1424A4B21CB1C8
:107DC00009205DF8044B704780E8120084608281CE
:107DD000C38120465DF8044B70470E20704700BFFA
:107DE00082B050E8022FC188B2EB324F4FF000034F
:107DF00017BF92B241EA014142EA014104E0426800
:107E0000B2EB324F08BF012340E80212002AE8D14A
:107E10008DF807309DF80730002B0CBF1120002093
:107E200002B0704730B482B050E8013F9DB2C489BF
:107E300025448489A54228BF2D1B0489A54202BF81
:107E4000BFF32F8F002207E0C5EA030540E8015485
:107E5000002CE9D14FF001028DF803200193019B22
:107E60009DF803200B602AB10B880068184402B00B
:107E700030BC704702F0FF03184602B030BC7047B8
:107E80000A884B889A4201D00020704750E8012FA1
:107E9000C2EA024240E80123002BF7D101207047DB
:107EA00030B482B050E8023F1FFAA3F5C488A5425F
:107EB00002BFBFF32F8F00220DE0C48925448489BF
:107EC000A54228BF2D1BC3EA054540E80254002CFB
:107ED000E8D14FF001028DF803200193019B9DF83A
:107EE00003200B602AB14B880068184402B030BCF4
:107EF000704702F0FF03184602B030BC704700BF65
:107F00000A884B889A4201D00020704750E8022F1F
:107F1000C2EA224240E80223002BF7D10120704739
:107F200001F01F024B09012100EB8300914000F09A
:107F300081B800BF10B5012301F01F04490900EB0F
:107F4000810003FA04F100F067F8E04000F001005E
:107F500010BD00BF01F01F0201234909934000EB4F
:107F60008100D94300F074B84B0901F01F0150F8AB
:107F70002300C84000F00100704700BF2DE9F84F12
:107F800001F1FF394FEA591909F101090F46064677
:107F900000EB8909044600254FF0010823686FEAC9
:107FA000030B9BFAABFBBBFA8BFBBBF1200F20D082
:107FB000AB445F450CD81CE02368DB4393FAA3F382
:107FC000B3FA83F3202B05EB030B12D05F4510D9D6
:107FD0000BF01F0A4FEA5B1008FA0AF106EB80006B
:107FE00000F01AF820FA0AF0C307E5D45846BDE8B5
:107FF000F88F04344C4505F12005CFD1BB46F5E799
:1080000000B550E8002F0B4640E8003E9EF0000F00
:10801000F7D110465DF804FB00B550E8002F42EAA6
:10802000010340E8003E9EF0000FF6D110465DF8D7
:1080300004FB00BF00B550E8003F43EA010240E8FE
:10804000002E9EF0000FF6D110465DF804FB00BF35
:1080500000B550E8003F03EA010240E8002E9EF020
:10806000000FF6D110465DF804FB00BF00B550E8E4
:10807000002F02EB010340E8003E9EF0000FF6D116
:1080800010465DF804FB00BF00B550E8003F03EB6D
:10809000010240E8002E9EF0000FF6D110465DF878
:1080A00004FB00BF00B550E8003FA3EB010240E82D
:1080B000002E9EF0000FF6D110465DF804FB00BFC5
:1080C00000B5012350E800EF4EEA030240E800212A
:1080D00091F0000FF6D170465DF804FB00B5012366
:1080E00050E8002F42EA030E40E800E191F0000F53
:1080F000F6D170465DF804FB00B5002350E800EFB0
:108100000EEA030240E8002191F0000FF6D170461C
:108110005DF804FB00B5002350E8002F02EA030ECF
:1081200040E800E191F0000FF6D170465DF804FBE5
:10813000B8B130B4416882680468521AD2B2531E92
:108140002160DBB242B101680A685C1E551C0D60FB
:108150001370E3B2FF2BF6D103680020187130BC16
:1081600070470E20704700BFF0B583B002AB00250A
:1081700003F8015D04461846FFF7DCFD23686168DB
:108180001A688A4210D9511E19602168A3680E68C6
:1081900012F8015C0A79278AE0689B1BDBB29A42DD
:1081A00007FB050538BF0B719DF80700FFF7E8FDD9
:1081B000284603B0F0BD00BF30B583B002AB00224B
:1081C00003F8012D054618460C46FFF7B3FD2A6853
:1081D0001368591C1160E9682A8A641AB4FBF2F426
:1081E0001C709DF80700FFF7CBFD03B030BD00BF4A
:1081F000826802B9704710B5044643690168006996
:1082000098470023A36010BD0EB400B582B0039957
:1082100029B102AA04AB42F8043D00F095F802B07F
:108220005DF804EB03B070472DE9F84F1746B942EB
:10823000884606461D46DDF828B00B9A7DD30B46CE
:108240004FF00109B3FBF7F39F4209F10109F9D996
:10825000A94538BFA94612F0010A02D1BBF1000FAF
:1082600049D1B268012402E0013D07FB04F4012D6D
:10827000FAD8B8FBF4F18F42F7D9324D05E0B4FBE0
:10828000F7F4A4B1B8FBF4F1B268685C531CB360B6
:1082900033689854B26873689A4204FB1188EED32D
:1082A0003046FFF7A5FFB4FBF7F4002CEAD1BAF192
:1082B000000F16D0BBF1000F33D0CB4588BF202470
:1082C0003ED9B3683268591CB160D454B26873683F
:1082D0009A420BF1FF3B06D2BBF1000F09D0D94502
:1082E000EFD1BDE8F88F3046FFF782FFBBF1000FFA
:1082F000F5D1BDE8F88F93071AD42024CB45B0D927
:10830000B2683368511CB1609C54B26873689A4279
:108310000BF1FF3B07D2BBF1000FA3D0CB45F0D14F
:10832000A0E7BDE8F88F3046FFF762FFB268F2E7DA
:10833000002D0CBF30242024E0E74FF0010987E72F
:10834000BDE8F88F68B50300002900F06F822DE9C1
:10835000F04F064685B093460C460B780DE0B268A8
:108360003168501CB0608B54B26873689A4280F0D8
:10837000D3802378002B00F0BA800134002B00F06A
:10838000B680252BEBD14FF00008234614F8012BC3
:108390002D2A00F0BB80302A00F0BB802B2A00F091
:1083A000AD802A2A00F0BC80A2F13005E9B209298B
:1083B00098BF013302D9A9E1A1F130051C4613F899
:1083C000012BA2F1300005EB8501092802EB4101E8
:1083D000F2D92E2A00F0B080002701E014F8012F16
:1083E00002F0FB03682BF9D0253A532A7AD8DFE84C
:1083F00012F07A017900790079007900790079002A
:1084000079007900790079007900790079007900A4
:108410007900790079007900790079007900790094
:108420007900790079007900790079007900790084
:108430007900790079007900790079007900790074
:108440007900790079007900790079007900790064
:1084500079007900790079006A0179007900790062
:108460007900790079007900790079007900550167
:10847000FC007900790079007900FC00790079002E
:108480007900790079007900540079007900CA00F8
:108490007900BA00790079006A01DBF80020131D29
:1084A000CBF80030B368156831685A1CB2604FF0E1
:1084B0003002CA54B3687268934280F0A081326877
:1084C000581C7821B060D154B26873689A4280F029
:1084D00092810022082301922946009310223046FF
:1084E000FFF7A2FE01342378002B7FF446AF337BE5
:1084F000002B40F0058105B0BDE8F08F234614F84D
:10850000012B2D2A48F004087FF445AF48F00108FC
:108510003BE748F0020838E73046FFF769FE28E7F6
:10852000DBF80020111DCBF8001015685A782E2AB0
:1085300003F101047FF450AF6278A2F13003092BFC
:1085400004F101044FF000073FF64AAF07EB87073D
:1085500002EB470714F8012FA2F13003092BA7F112
:108560003007F3D93CE7DBF800301A1DCBF80020C8
:108570001968CDF804803B4600950A223046FFF783
:1085800053FE0134AFE7DBF800301A1DCBF80020B2
:1085900018F0010FD3F8009040F0BB80B9F1000F44
:1085A00000F04781484612F06FFD0746BD4240F299
:1085B000F180002D00F0EE804FF0200805E0BD4274
:1085C00000F0E880002D00F0E580B3683268591CA7
:1085D000B16002F80380B26873689A4205F1FF3512
:1085E000EDD33046FFF704FEE9E7DBF800301A1D53
:1085F000CBF80020D3F8009089EAE973A3EBE97384
:10860000092B4FF0010A09DD8F4A82FB0312DB17A9
:10861000C3EBA203092B0AF1010AF5DCBA4538BF06
:10862000BA462DB3B9F1000F02DB18F0040F00D0E9
:10863000013D18F0020F40F0F58018F0010F17D13E
:10864000002D00F0FE80AA4538BF202110D2B2686C
:108650003368501CB0609954B26873689A4205F14F
:10866000FF3580F0E880002D00F0EB80AA45EED1C8
:10867000B9F1000FC0F2C88018F0040F7BD108F0E8
:108680000303022B00F09A808DE820013B46494607
:108690000A223046FFF7C8FD013424E7DBF800204A
:1086A000131DCBF80030B36831681278581CB060E5
:1086B000CA54B26873689A42FFF414AF3046FFF7A9
:1086C00097FD01340FE7DBF800301A1DCBF80020CE
:1086D0001968CDF804803B46009510223046FFF71C
:1086E000A3FD0134FFE6B3683268591CB1604FF056
:1086F0002501D154B26873689A42DFD20134F2E6A0
:10870000304605B0BDE8F04FFFF772BD1C460025AE
:108710005FE64F46A7EB090817F8013B8BB1B2683B
:108720003168501CB0608B54B26873689A42F1D3C0
:108730003046FFF75DFDA7EB090817F8013B002B5A
:10874000EDD145457FF6CEAE202705E045453FF407
:10875000C9AE002D3FF4C6AEB3683268591CB16093
:10876000D754B26873689A4205F1FF35EED33046AC
:10877000FFF73EFDEAE7B2683368501C2B21B0607A
:108780009954B26873689A42FFF479AF3046FFF7A4
:108790002FFD74E709F1FF3919F8013F002B3FF471
:1087A000A1AEB2683168501CB0608B54B268736877
:1087B0009A42F1D33046FFF71BFDEDE7002F7FF41F
:1087C00063AF002D33D0AA45BFF45EAFB268336803
:1087D000511CB1604FF030019954B26873689A42ED
:1087E00005F1FF3503D215B3AA45EFD14CE730466A
:1087F000FFF7FEFCF7E73046FFF7FAFC69E6304684
:10880000FFF7F6FCB3685AE6B2683368501C2D21B6
:10881000B0609954B26873689A42C9F10009FFF4D4
:108820002EAFB3E7002F3FF423AF06E770470025D4
:108830002AE74F46BAE630460391FFF7D9FC039981
:1088400011E7002514E700BF67666666FFF770BC96
:108850002DE9F041B0F81080CF1CA8F1040847447E
:108860000646B7FBF8F7FFF77FFC80B3FFB20025A1
:108870000123013F0446A0F806800660057143719C
:1088800028D0804609E06379AF4203F101036371A8
:10889000C8F80000066080461CD03046FFF764FC34
:1088A00001350028EFD16679721E16D023460130BB
:1088B00082421B68FBD81F684EB1214600250C6818
:1088C00001353846FFF778FCAE422146F7D100204B
:1088D000BDE8F0812046BDE8F0812768EDE700BFE4
:1088E00004300121FFF7D0BBF8B501210446043064
:1088F000FFF7D8FBC0B200B1F8BD6679721E12D086
:108900002346013082421B68FBD81F68002EF3D03B
:10891000214600240D6801343846FFF74DFCA6427D
:108920002946F7D1F8BD2768F2E700BF2DE9F843E3
:10893000C78890F805E0154607FB0EFEEC18AEF16F
:10894000040E1A1DA6458846B2FBF7F638BFAEEBFB
:10895000030507FB1621044616B1013E2468FCD12D
:108960007E1AAE4228BF2E469DB14FF00009081D69
:10897000AD1B08EB09012044324612F0AEFAAF42BB
:10898000B14424683E464FF0000128BF2E46002D1A
:10899000EDD1BDE8F88300BF2DE9F843C78890F812
:1089A00005E0154607FB0EFEEC18AEF1040E1A1D8D
:1089B000A6458846B2FBF7F638BFAEEB030507FBCA
:1089C0001621044616B1013E2468FCD17E1AAE423F
:1089D00028BF2E469DB14FF0000904312144AD1B44
:1089E000324608EB090012F078FAAF42B14424682D
:1089F0003E464FF0000128BF2E46002DEDD1BDE8C8
:108A0000F88300BF41DF7047064A074B10B50024CA
:108A100014701C60BFF35F8F0449054800F0ACF987
:108A2000204610BD543400205834002078B503008F
:108A30004C34002000B583B002A8002300F8013DAB
:108A4000FFF778F9F1EE103A23F09F03E1EE103AC8
:108A5000BFF35F8F0A4B4022C3F884219DF80700C3
:108A6000FFF78EF905F0B6F828B920BF40BF20BF48
:108A700003B05DF804FBFFF7C5FF03B05DF804FB2E
:108A800000E100E00368826818685B68934234BFC5
:108A900001330023C01AB0FA80F04009704700BFCC
:108AA000F0B583B002AB002503F8015D044618461B
:108AB0000E46FFF73FF92368A2681968586890428C
:108AC00038BF451CA94212D058685D68AA420BD82D
:108AD00000225A60E268531E072B4CD8DFE803F0EF
:108AE00033374B254B4B4B1201355D60F2E7217C50
:108AF000002931D004249DF80700FFF741F92046F2
:108B000003B0F0BD6368D6E9006703EBC000C0E9BD
:108B1000006722681368506883420FD8C31A9168AF
:108B2000994238BF93600024E5E76368326843F8F0
:108B300020202268136850688342EFD9A168013170
:108B40000144CB1AEBE7636832781A54E1E76368B3
:108B5000328823F81020DCE758685D68AA4211D9F2
:108B600001355D602268A16813688B4234BF013310
:108B700000231360AEE76368314600FB023012F059
:108B8000ACF9C6E75960EDE72DE9F041144682B033
:108B90001AB9204602B0BDE8F081054602A80023BC
:108BA00000F8013D0E46FFF7C5F82A6813685168C2
:108BB0008B420BD8CB1A9C420ED905249DF8070096
:108BC000FFF7DEF8204602B0BDE8F081A86801306A
:108BD0000144CB1A9C42F0D8D2F8008057686968EB
:108BE000EA68B84584BFAF680137A7EB0807BC4205
:108BF00002FB08110ED802FB04F2304612F06DF9A8
:108C0000A9682B6804EB08028A4288BF00221A6018
:108C10000024D3E707FB02F84246304612F05DF924
:108C2000EA686968E71B06EB080002FB07F212F02E
:108C300054F92B6800241F60C0E700BF30B583B033
:108C400002AB002403F8014D05461846FFF772F801
:108C500021460C22286812F04BF99DF80700FFF717
:108C60008FF803B030BD00BF826800239360826834
:108C70001361826853618268D3608268536082683E
:108C8000136070472DE9F04105460F4690463BBB07
:108C900081684668CA68086906F1010E111A8E4596
:108CA00037D000EA060302EA060199423CBF831965
:108CB0000133D8F800002CBFAEEB01039B1A8342AE
:108CC00028BF0346C8F800302B680B443B60AA68F5
:108CD000D8F80010D3680B44D3600020BDE8F081C1
:108CE0008068FFF7EDF9044610B11120BDE8F0816E
:108CF000AB686E68DA68186906F1010E131A7345DD
:108D0000CFD1C8F80040A868FFF704FA2046BDE8B4
:108D1000F081C8F800301846BDE8F08138B58268A7
:108D200043681569946801332B441B1B8B4201D2A5
:108D3000042038BD0C44946083689A68DA608068C7
:108D4000FFF7DAF900280CBF0820002038BD00BF6B
:108D500010B58268146993681B1B8B4201D20420F2
:108D600010BD0C44146183681A695A61806804302C
:108D7000FFF7D0F9002010BD01600B6843604A681E
:108D8000934204BF00234360704700BF436843B170
:108D9000026891680B4443605268934204BF002309
:108DA0004360704730B4184DA5F59472AB1ADB10D0
:108DB00003EBD3735B1002EBC30152F833309842DC
:108DC00028BF0C4605D311E052F8333098420CD23C
:108DD00021468B1ADB1003EBD3735B10914202EB3D
:108DE000C304F1D8094830BC70470D46984204D9F5
:108DF00004F10802AA42D9D3F4E76068034B0028C3
:108E000008BF1846EFE700BFCCB6030090B50300DB
:108E1000F0B4B44B1A78062A20D0B34B1B68062B4B
:108E200000F08A80B14AD2F8883043F47003C2F867
:108E30008830BFF34F8FBFF36F8F4FF01023D3F8FD
:108E40000022002AC0F28A81D3F80432002BC0F23B
:108E50008581A74BA74A1A60F0BC704704331B6892
:108E60001807DAD1A44B1B6803F0F002302A00F097
:108E7000658103F0E003402B00F060819E4B1B688E
:108E800003F0F003302B00F01E819B4B1B6803F0B6
:108E9000F002302A00F0078103F0E003402B00F0DD
:108EA0000281954B1B6803F0F003302B00F0EB8040
:108EB000914B1B6803F0F002302A00F0D08003F0E1
:108EC000E003402B00F0CB808B4B1B6803F0F003DA
:108ED000302B00F0B680884B1B6803F0F003302B7A
:108EE00000F09880844B1B6803F0F003502B3FD0B8
:108EF000814B1B6803F0F002302A28D003F0E00316
:108F0000402B24D07C4B1B6803F0F002302A03D0A6
:108F100003F0E003402B80D14FF08043D3F80024CE
:108F2000D2077FF57AAF6FF00102C3F800246E4BD1
:108F30001B68062B7FF476AF704B1B68062B7FF403
:108F400071AF6F4A136843F4806313606AE76D4B37
:108F50006D4A1B6803F04F031360624B1B78062BAE
:108F60007FF45BAF694B1B6818077FF456AFC9E706
:108F70004FF08052664BD2F80414C3F82015D2F893
:108F80000814C3F82415D2F80C14C3F82815D2F825
:108F90001014C3F82C15D2F81414C3F83015D2F8F5
:108FA0001814C3F83415D2F81C14C3F84015D2F8BD
:108FB0002014C3F84415D2F82414C3F84815D2F885
:108FC0002814C3F84C15D2F82C14C3F85015D2F855
:108FD0003014C3F85415D2F83414C3F86015D2F81D
:108FE0003814C3F86415D2F83C14C3F86815D2F8E5
:108FF00040143C48C3F86C15D2F844140278C3F806
:109000007015062A7FF409AF404B1B681C077FF4DC
:1090100004AF6DE73F4E404C4049414B05270125C9
:1090200000203F223760256008601A602D4B1B78B6
:10903000062B7FF4F2AE354B1B681D077FF4EDAEB7
:1090400050E7284B374A1B780321062B11607FF429
:10905000E4AE2E4B1B681E077FF4DFAE3BE74FF0FC
:1090600080430022C3F80C21C3F81021C3F838252F
:109070001C4B1B78062B7FF470AF244B1B681F071B
:109080007FF4CBAE20E72849164ACB68127823F04C
:109090008073062ACB607FF4C0AE1C4B1B681B0795
:1090A0007FF4BBAE04E7214B0E4A1B6812782049BF
:1090B000C3F34233062A0B60B8D1144B1B681A075E
:1090C0007FF4ABAEEDE6074B1A4A1B781A491160E4
:1090D000062B7FF4A2AE0D4B1B6819077FF49DAEE3
:1090E000D3E600BFE00F00F03001001000ED00E01B
:1090F000B42A00200090D003E80F00F034010010E3
:109100003C17004058020010E40E0040E40F00F04D
:1091100000C00040105600408856004018560040DD
:1091200014560040A0050040F0ED00E0440200109D
:109130003C05004074C007400DF0ADBA204B214AF9
:109140001B6812782049C3F30423062A0B608FD1D1
:109150001E4B1B6819073FF491AE5EE61C4B0122C3
:10916000C3F80425D3F80024002AFBD04FF01023C5
:1091700015221749C3F80022D1F80034002BFBD088
:109180004FF010221521124BC2F80412D3F800241C
:10919000002AFBD000220E49C3F80425D1F8003480
:1091A000002BFBD0BFF34F8F0A490B4BCA6802F468
:1091B000E0621343CB60BFF34F8F00BFFDE700BFFA
:1091C00024030010E00F00F040350140E40F00F0F0
:1091D00000E0014000ED00E00400FA0510B568B1C0
:1091E00001280AD10C4C2369A07033B10CCB0120AB
:1091F000226198472369002BF8D110BD064CA36863
:1092000001226270002BF8D00CCB0020A26098479E
:10921000A368002BF8D110BD5C34002068B910B5EC
:10922000064CA3680122627033B10CCB0020A2600F
:109230009847A368002BF8D110BD70475C3400201C
:1092400030B5012883B01CD015D3032811D100F00C
:10925000C9F802A800231F4C00F8013DFEF76AFD83
:10926000E368013BE360E56865B39DF80700FEF73E
:1092700087FD03B030BD184B0122C3F8802003B036
:1092800030BD02A80023134C00F8013DFEF752FD4B
:10929000237853B1E3689DF8070001330122E360AE
:1092A000A270FEF76DFD03B030BD0C486360A36093
:1092B0002361E36000F088F804F08CFC30B10123F6
:1092C0002370E7E700F0A2F8A570CEE700F08AF877
:1092D000F5E700BF5C34002000E100E0DD91020012
:1092E00070B50A4A0A4B06784568047AC06853F894
:1092F000213052F8211084B003908DF80060019560
:109300008DF808406846984704B070BD703400205E
:109310007434002070B50A4A0A4B067845688468A0
:10932000C06853F8213052F8211084B003908DF8B2
:10933000006001958DF808406846984704B070BDFC
:109340007034002074340020F0B51A4B06781A4DA2
:109350000C6991F81DC045F826400746174803F8E8
:1093600006C040F826200C4696460FCC89B06D46C4
:109370000FC594E80F0085E80F000496BCF1000FBC
:109380000BD0BEF1000F0E4A694607F1040008BF7A
:10939000002200F09BFE09B0F0BDBEF1000F094AAB
:1093A000694607F10C0008BF002200F00DFC09B06F
:1093B000F0BD00BFF8680020703400207434002035
:1093C000E192020015930200054A13790BB1852042
:1093D000704701211060537118461171704700BF2A
:1093E00078340020084B1A68D20706D40122C02125
:1093F00083F80013C3F880211A604FF080430222E3
:10940000C3F81825704700BF00E100E0044B0122BB
:109410001A604FF08042D2F81834DB03FBD4704757
:109420000C00004010B5144B1A6882B062B10021E4
:10943000124A19601B68507900934FF08041012354
:10944000009CC1F8083390B10D4B1A686AB1002234
:109450001A601B6801934FF080420221074B01986C
:10946000C2F808131B680120984702B010BD1168AC
:1094700053718847E8E700BF0001004078340020BE
:10948000040100402DE9F04F87B00023CC4A01933E
:109490001168012900F00A821E46CA4B1A68012A87
:1094A00000F0F681C84B1A68012A00F0E381C74B2F
:1094B0001A68012A00F0D081C54B1A68012A00F011
:1094C000BD81C44B1A68012A00F0AA81C24B1A68F8
:1094D000012A00F09781C14B1A68012A00F08481AB
:1094E000BF4B1A68012A00F05E8116F0FF0F1AD0F8
:1094F000BC4F01250024A30003F180432E4203F555
:10950000C0434FEA45050BD0D3F8100557F8242087
:10951000D3F81015C0F30420C1F3014102B1904704
:109520000134082CE7D1002E02DB07B0BDE8F08F34
:1095300000224FF0FF33AB4C02920393012502AEA1
:1095400094F950104F1C2DD0C9B221F0C00006ABC9
:109550004FEAD00E03EB0E0701F0070317F80C2CAF
:1095600005FA03F31A421DD02218890992F9302016
:1095700054F82220002A00F0F080032900F0F08047
:109580004FEA800E0EF1A04E17F814CCDEF80077EB
:109590001CEA0303C7F3014940F0B880B9F1030F97
:1095A00000F0D7814FF0030A4FF002094FF0010895
:1095B000002794F95110481C2DD0C9B221F0C000E9
:1095C00006AB4FEAD00C03EB0C0E01F007031EF8BC
:1095D0000C2C05FA03F31A421DD02218890992F9BE
:1095E000302054F82220002A00F0CA80032900F01D
:1095F000CA804FEA800C0CF1A04C1EF814BCDCF8B9
:1096000000E71BEA030FCEF3014E40F09080BEF15D
:10961000030F00F08A8194F952104A1C2CD0C9B271
:1096200021F0C00006AB4FEAD00C03EB0C0E01F0AA
:1096300007031EF80C2C05FA03F31A421CD022185B
:10964000890992F9302054F82220002A00F08F80F6
:10965000032900F08E804FEA800C0CF1A04C1EF81C
:1096600014ACDCF800E71AEA030FCEF3014E6AD11E
:10967000BEF1030F00F0468194F953104B1C2CD01F
:10968000C9B221F0C00006AB4FEAD00E03EB0E02C8
:1096900001F0070312F80CCC05FA03F31CEA030FE0
:1096A0001BD004EB000C89099CF930C054F82C90B5
:1096B000B9F1000F6ED003296ED04FEA800E0EF183
:1096C000A04E12F814CCDEF800271CEA030FC2F3F8
:1096D000014211D1032A00F0F580002F3FF425AF9D
:1096E0004FF0A043019AD3F810359A423FF41DAFD2
:1096F000029A0193039223E7022AEED1032900F094
:109700004681B9F1000FE8D0C847E6E7B9F1020F8A
:109710007FF448AF032900F043814FF0030A4FF074
:1097200001080027002A3FF444AF904741E7BEF10B
:10973000020F7FF470AF032900F02C81002A3FF460
:109740006AAF904767E7BEF1020F95D1032900F099
:109750002481002A90D090478EE703297FF422AF1E
:1097600016F80EC04CEA030C06F80EC008E70329F1
:1097700082D116F80CA04AEA030A06F80CA06AE7A0
:1097800003297FF448AF16F80CB04BEA030B06F838
:109790000CB02EE70329A0D116F80EC04CEA030C3A
:1097A00006F80EC089E700221A601B6805934FF087
:1097B000A043059AD3F81035019346F0004694E68D
:1097C0000061004004610040086100400C610040FD
:1097D0001061004014610040186100401C610040AD
:1097E0007C610040803400206F4AD2F804231206C6
:1097F0007FF576AE00221A601B680493049B46F046
:1098000080066DE6684AD2F8042351067FF563AE00
:1098100000221A601B680493049B46F040065AE637
:10982000614AD2F8042390067FF550AE00221A60F8
:109830001B680493049B46F0200647E65A4AD2F878
:109840000423D4067FF53DAE00221A601B68049302
:10985000049B46F0100634E6534AD2F80423150759
:109860007FF52AAE00221A601B680493049B46F021
:10987000080621E64C4AD2F8042357077FF517AEB5
:1098800000221A601B680493049B46F004060EE64F
:10989000454AD2F8042392077FF504AE00221A60ED
:1098A0001B680493049B46F00206FBE53E49D1F891
:1098B000046316F001063FF4F0AD136013680493DF
:1098C000049BEAE503297FF41CAF4FF40032DEF875
:1098D000003723F44033CEF80037DEF80037134367
:1098E000CEF80037B9F1000F01D047460CE74FF032
:1098F000A043019AD3F8103593427FF4F9AE07B034
:10990000BDE8F08F03297FF424AF4FF40037DCF873
:10991000003723F44033CCF80037DCF800373B4302
:10992000CCF800374746C84613E703297FF406AF53
:109930004FF40037DCF8003723F44033CCF800371D
:10994000DCF800373B43CCF800374746C846D146E1
:10995000F4E6032906D0CA461F464FF002094FF02D
:109960000108DFE64FF40037DEF8003723F4403318
:10997000CEF80037DEF800373B43CEF800374FF023
:10998000040A4FF003094FF002080127CAE64FF41A
:1099900040329CE74FF44037CCE74FF44037B6E70E
:1099A0004FF44037E0E700BF00600040014B1B6808
:1099B000184700BFDC340020104B984201D0002033
:1099C000704730B583B002A8002300F8013D0D4672
:1099D000FEF7B0F90A4B1C7934B19DF80700FEF789
:1099E000CFF9112003B030BD01229DF807001D60A2
:1099F0001A71FEF7C5F9204603B030BD00200040C3
:109A0000DC34002030B56E4AD2F8043399058BB0AF
:109A10005BD5D2F82431002B57D00023C2F8243173
:109A2000D2F8243103934FF40171664B0398C2F8C6
:109A3000081393F8291009B90121516060490222E5
:109A40008DF81820D1F88024C1F880249869D9684D
:109A500009920022089007919A6193E81200DA6156
:109A600006A8A047564AD2F81C31C3B1554B186A14
:109A70005969884265D293F8280000F0FF04002855
:109A80005FD1C2F81C41D2F81C11029102999C6866
:109A9000186A196A205C01311962C2F81C05484A2B
:109AA000D2F844317BB10021464BC2F84411D2F8C0
:109AB000440193F829100090009809B10121116028
:109AC0009A69002A52D10BB030BD3D4AD2F8043316
:109AD0005B07C7D5D2F80831002BC3D0394B996941
:109AE000002952D00021C2F80811D2F808110491BF
:109AF0000499D868596AD2F8182542545A6A996963
:109B000001325A625A6A8A42ACD1DA69002A45D1D6
:109B100093F8292012B92A4A01215160284A4FF4AA
:109B20000171C2F80813596ADA680891002401200B
:109B300007928DF8180093E806009C6106A89047EC
:109B400090E71F4A0020C2F81C01D2F81C210192A4
:109B5000019A0029A3D09A688DF8180008915861DD
:109B6000079206A893E80600904798E70022586AF3
:109B7000D9689A610122089007918DF8182006A8EB
:109B800093E8060090470BB030BDC2F80811D2F838
:109B9000080105900598D2F81825B3E7DD685C6ADE
:109BA00018699A6101210022D860DA615A628DF841
:109BB00018100795089493E8060006A8904751E707
:109BC00000200040E43400202DE9F041604E05798A
:109BD0002C2303FB056382B093F82A301BB10820C5
:109BE00002B0BDE8F0810F4604465A49006890462D
:109BF000FFF7E2FE18B1112002B0BDE8F0813A682B
:109C0000511C0BD04FF0A04101239340C1F80835FF
:109C10003B6803F5E073032241F823207B685A1C5C
:109C200006D003F5E0734FF0A042002142F8231064
:109C30002368BA69C3F82425397D7B7D22680B43EC
:109C4000C2F86C3597E806002368C3F81425C3F8FA
:109C50000C153B7D012B51D02C2303FB05F3F2188F
:109C6000C2F804803A69F250B8F1000F35D0236889
:109C70003A7F394F0021C3F81C11D3F81C310093EF
:109C80002368DDF800E0C3F84411D3F844112368D9
:109C900001910199C3F804732168090B4BB2002BA1
:109CA0004EDB03F1604303F561435201D2B283F806
:109CB00000232268120B42F3C40323F0604323F015
:109CC000030303F1604303F5614302F01F02012126
:109CD00001FA02F2C3F880211A602C23246803FBE6
:109CE0000563002204250121C4F8005583F82A10D9
:109CF0009A61DA6183F829205A6171E7BB68591CBF
:109D000006D003F5E0734FF0A042002142F8231083
:109D1000FB685A1C0DD001224FF0A04102FA03F358
:109D2000C1F80835FB6803F5E073032241F82320EE
:109D3000FB682268B968C2F80835C2F810158BE7CD
:109D4000064B01F00F0152010B44D2B21A76B0E774
:109D5000E4340020059A020080000200FCEC00E0E0
:109D6000F0B5304E05792C2303FB056385B05C69A3
:109D700014B1112005B0F0BD1C62996083F8284031
:109D80005A610268C2F81C41D2F81C1102680291A3
:109D90000121029F91600268D3F808E0C2F81C41DB
:109DA000D2F81C1101910199D3F820C0196A5F689B
:109DB0001EF80CC001311962C2F81CC517B120464B
:109DC00005B0F0BD1A6A5C690168944203D819E0D5
:109DD00093F82820F2B9D1F81C21002AF8D0C1F854
:109DE0001C71D1F81C210392039AD3F820C01A6A7F
:109DF0001EF80CC001321A62C1F81CC51A6AA242D0
:109E0000E9D30168D1F81C31002BFBD00123CB60D2
:109E1000002000E00F202C2303FB056300225A6181
:109E2000A8E700BFE43400200379044A2C2101FB99
:109E300003235869003018BF01207047E434002024
:109E4000F0B4544D04792C2303FB045386B05F68AF
:109E500027B103684FF40176C3F808632C2303FB92
:109E600004539E696EB1DE690EB3002F00F08F803F
:109E700003684FF401721120C3F8042306B0F0BC4C
:109E8000704793F829709A61D9605E62DE61002F95
:109E90002FD02C2303FB04535A6882B103684FF47C
:109EA0000172C3F80423002006B0F0BC7047DA61E9
:109EB00019612C2303FB04535A68002AEED1016870
:109EC000C1F84421D1F844210392039A0268D2F8E0
:109ED0002461D2F80871D2F84411E7B9002948D1B9
:109EE000002EF4D02C2303FB04540023A361032091
:109EF000DAE70368C3F82471D3F8242103680192D8
:109F0000019AC3F80871D3F808210368029201226C
:109F100002991A60BDE7002EE4D161BB9E6996B13B
:109F2000C2F80811D2F8081104910499DE68596A40
:109F3000D2F8182572545A6A996901325A625A6ADB
:109F40009142C3D808E0C2F80861D2F8081105911F
:109F50000599D2F818255B6A2C2303FB04540022D0
:109F600094F82930A2616BB1036801211046196091
:109F70009AE7002EB6D12C2303FB04540023A361DF
:109F80000F2091E702680121184651608CE71120EB
:109F90008AE700BFE434002070B54A4BD3F824218F
:109FA00088B0002A55D1D3F81011F1B9454BD3F838
:109FB000442152B10020444AC3F84401D3F844413B
:109FC00091690194019C002960D13E4BD3F8202176
:109FD0004AB100213C4AC3F82011D3F8204150690E
:109FE0000094009C30BB08B070BDC3F81021D3F8BA
:109FF00010113548039103998169D3F83C458C428F
:10A00000D4D1C569002D50D0D3F80012C66885613F
:10A0100021F02001C3F800120369C2610122016826
:10A02000C3608DF81840436805968DF8102004A889
:10A030009847BBE7D3F84C0593688DF818008DF866
:10A0400010105161059304A892E80A00984708B0DF
:10A0500070BD0021C3F82411D3F8242102920222FA
:10A060008DF81020029AD3F88004174AC3F88004B0
:10A070000790D3F83C05D3688DF818009161D16141
:10A0800005931168536804A898478FE7D3F83C45B7
:10A090008DF81840D36890610124059311685368C6
:10A0A0008DF8104004A898478FE7C3680168856160
:10A0B000012205938DF8184043688DF8102004A8FC
:10A0C000984773E700200040103500202DE9F04349
:10A0D0000479704EE7003B1906EB830385B093F8D3
:10A0E00020301BB1082005B0BDE8F0838946054645
:10A0F000694900689046FFF75FFC18B1112005B070
:10A10000BDE8F083D9F80020511C0CD04FF0A041DD
:10A1100001239340C1F80835D9F8003003F5E07306
:10A12000032241F82320D9F804305A1C06D003F545
:10A13000E0734FF0A042002142F823102B68D9F8B9
:10A140001820C3F8242599F8141099F815202B68C5
:10A150000A43C3F86C252A68D9F80030D9F80410EE
:10A16000C2F80C35C2F8141599F81430012B61D0DF
:10A170003A199200B318C3F80480D9F81030B350DC
:10A18000B8F1000F47D0296899F81C20DFF810E1DA
:10A190000023C1F81031D1F8101100912968DDF8C1
:10A1A00000C0C1F82031D1F8201101912968DDF8F3
:10A1B00004C0C1F82431D1F8241102912968DDF8D6
:10A1C00008C0C1F84431D1F844112B6803910399B8
:10A1D000C3F804E32968090B4BB2002B51DB03F1F0
:10A1E000604303F561435201D2B283F800232A6829
:10A1F000120B42F3C40323F0604323F0030303F183
:10A20000604303F5614302F01F02012101FA02F2EB
:10A21000C3F880211A603C442A6806EB84040023BA
:10A220000125082184F82050C2F80015A361E361DC
:10A23000636158E7D9F80830591C06D003F5E0737C
:10A240004FF0A042002142F82310D9F80C305A1CDC
:10A250000FD001224FF0A04102FA03F3C1F80835F4
:10A26000D9F80C3003F5E073032241F82320D9F824
:10A270000C302A68D9F80810C2F80835C2F8101551
:10A2800076E7064B01F00F0152010B44D2B21A7669
:10A29000ADE700BF10350020999F0200FCEC00E004
:10A2A0001003020001F06043B3F1005F01D0102001
:10A2B0007047F0B50579214EEF007C1906EB840458
:10A2C00083B0636913B1112003B0F0BDA160626176
:10A2D000D0F800E0CEF82031DEF820C1D0F800E060
:10A2E000CDF804C0DDF804C0CEF85831DEF858C10E
:10A2F000D0F800E0CDF800C0DDF800C0CEF844157D
:10A30000CEF8482502680121916062680AB11846BA
:10A31000DAE7036800E079B9D3F82021D3F85811BF
:10A32000002AF8D0002914BF0F2000207B1906EB6B
:10A33000830300225A61C7E70F20F7E7103500209A
:10A340000379054A03EBC30302EB8303586900302A
:10A3500018BF0120704700BF1035002001F0604396
:10A36000B3F1005F01D010207047F0B50479454E7D
:10A37000E3001D1906EB850583B06D6825B10768FC
:10A380004FF4047EC7F808E3234406EB83039C697B
:10A390006CB3DC69002C44D11961DA610368C3F83D
:10A3A0001041D3F8105103680195019DC3F8444151
:10A3B000D3F8444103680094009CC3F83415C3F8F3
:10A3C00038250268D2F8003243F02003C2F8003288
:10A3D0000479E5002B1906EB83035B684BB3036834
:10A3E0004FF40472C3F80423002003B0F0BD9A6157
:10A3F000DC61D9600368C3F81041D3F810510368D9
:10A400000195019DC3F84441D3F844410368009489
:10A41000009CC3F83415C3F83825036801221A607C
:10A42000D6E705B303684FF40472C3F80423112080
:10A43000DBE7036801E0C1B9E8B9D3F81021D3F82C
:10A440004411D3F82401002AF5D02C4400284FF001
:10A45000000306EB840614BF032018469942B3613B
:10A4600018BF0F20C1E71120BFE72C4406EB84067C
:10A470000F20B261B9E72C4406EB84060320B161DA
:10A48000B3E700BF10350020002070470020704760
:10A49000072070470620704710B50388102B08D09E
:10A4A000112B05D1264B18680138186038B110BD42
:10A4B00010BD234C216881B10131216010BD012202
:10A4C0000221FFF7E5FF48B3072827D01D4B1B6883
:10A4D000002BECD0BDE81040184701220846FFF7DA
:10A4E000D7FF48B1072807D0164B1B6803B1984720
:10A4F00021680131216010BD072202210120FFF7F0
:10A50000C7FF08B10728EFD1042202210020FFF77E
:10A51000BFFF0028ECD00728E6D1E9E70722022197
:10A520000120FFF7B5FF08B10728CFD10021084669
:10A530000A22FFF7ADFF0028B9D00728C6D110BD09
:10A54000383500203435002008B50020FFF7A2FF81
:10A5500010B1062800D008BD0120FFF79BFF00289E
:10A56000F9D0062808BF002008BD00BF74DF70477F
:10A5700076DF70477ADF70477CDF70478FDF704788
:10A58000B1DF704767DF704733DF704700B583B0D6
:10A5900002A941F8080D2220FFF7F4FF03B05DF88F
:10A5A00004FB00BFFCF78EBE70B50388103B86B07D
:10A5B0000446462B43D8DFE803F0244E4242425F74
:10A5C0004279858942424242424242A34242424249
:10A5D000424242424242424242424242424242425B
:10A5E0004242424242444242424242424242424249
:10A5F000424242424242424242424242AF424242CE
:10A6000044004C4B4C484D49C01AC008000440F06F
:10A610000300FCF76DF90720FFF736FF002840F034
:10A620008580474BA1884748198002F02BFC08B170
:10A63000FCF748FE444B01221A7003F0B7F906B04C
:10A6400070BD80881321FFF793FF0028F7D0FCF737
:10A6500039FE06B070BD374B37483C49C01AC008B8
:10A66000000440F00300FCF743F9354B4FF6FF724E
:10A670001A8003F09FF9E2E700F10801062204A81E
:10A6800010F02BFC002304A88DF81630FBF7C6FF52
:10A69000284A294B2E499B1ADB081B04024643F02B
:10A6A0000300FCF79FF903F089F9C8E72248214B22
:10A6B0002849C01AC008000440F00300FCF718F94C
:10A6C00006B070BD1C481B4B2349F2E7194D1A48D0
:10A6D000637AA17A227A667B247B0296401BC008AB
:10A6E000C3F3C005C1F3C00100048DE8120040F0BF
:10A6F00003000395C3F380031849FCF797FB9EE71B
:10A70000002380888DF8103004A98DF81130FFF7F0
:10A7100035FF002893D09AE7094A0023108819468C
:10A720001A46FFF72DFF002889D090E7FCF7CAFDF5
:10A7300077E700BF04EC030034EC0300E4BA030045
:10A74000BE2A0020B0370020BC2A0020F0BA030047
:10A7500000BB03000CBB03002CBB03004CBB03007D
:10A7600000B583B002AA054B22F8021D1B880146E2
:10A77000034802F0B1FD03B05DF804FBBE2A0020DF
:10A78000C02A00200C4B4A881B889A4200D0704790
:10A790000A8840F677239A42F9D1084A08488B88FC
:10A7A0000849801A033BC0089BB2000440F0030034
:10A7B0001A46FCF791B900BFBE2A002004EC030042
:10A7C00034EC030074BC030008B5037803B108BD82
:10A7D000054B3B211888FFF7CBFE0028F7D0BDE8DA
:10A7E0000840FCF76FBD00BFBE2A002008B5037803
:10A7F00003B108BD818A006902F00EFE0028F8D07E
:10A80000054B06480649C01AC008000440F0010084
:10A81000BDE80840FCF76CB804EC030034EC03001E
:10A82000BCBC0300FCF74EBD70B5B8B0082856D8C4
:10A83000DFE810F08700DD00F10009009B00AB00AD
:10A84000CC005700F5009C4B9C4C9D49E41AE40851
:10A85000240444F003042046FCF74AF80220FFF7E2
:10A8600013FE002840F01081964D2B78002B36D037
:10A87000954E96492046FCF73BF8B37801222A70A2
:10A88000002B40F0108108F0C3FD40B3904B1A88B4
:10A890004FF6FF739A4222D138A9082318AD41F828
:10A8A000B83D2846012308F0BBFD002840F0008198
:10A8B000204688490A9A0823FCF70EF928460A9987
:10A8C00008F042FD08B1FCF7FDFC00220123032142
:10A8D0007D4886F8522286F8543201F011FA38B0D9
:10A8E00070BD38AB082618AD0AAC43F8D06D2A46C7
:10A8F000204603A9039608F031FD052802D0002860
:10A9000040F0C88038A9082341F8CC3D06A80223AE
:10A910004FF6FF7208F084FD002840F0B28006A8D0
:10A92000059908F033FD08B1FCF7CCFC049B0093BB
:10A93000039A65482B46214601F0B0FB0028CED093
:10A9400065E00020FFF7A0FD002840F09780FFF7AA
:10A95000FBFD002840F09B8003F022F802F08AFE05
:10A96000FFF712FE0028BAD051E0534B53485A4922
:10A97000C01AC008000440F00300FBF7B9FF042030
:10A98000FFF782FD0028AAD041E04B4B4B4C5349C6
:10A99000E41AE408240444F003042046FBF7A8FF6B
:10A9A0000320FFF771FD002865D1464B1B78002B73
:10A9B00059D008F02DFD002891D1434B9A78002AF8
:10A9C0008DD093F85400FFF7D1FD88E73A4B3B4810
:10A9D0004349C01AC008000440F00300FBF788FF99
:10A9E0000320FFF751FD00283FF479AF0FE0334813
:10A9F000314B3C49C01AC008000440F00300FBF78B
:10AA000077FF0520FFF740FD00283FF468AFFCF713
:10AA100059FC38B070BD2948274B3349EAE718A9DB
:10AA2000002008F057FE05283FF459AFC0BB38A9F5
:10AA300008230AAC41F8C83D204606234FF6FF72B2
:10AA400008F0EEFC48BB2046069908F09FFC08B1D0
:10AA5000FCF738FC0DF171011B4801F00FFB0028D9
:10AA60003FF43DAFD3E720462049FBF741FF1648AE
:10AA700001F02AFB33E7FCF725FC96E7FCF722FC04
:10AA800065E7FCF71FFC4AE7FCF71CFCECE6FCF76B
:10AA900019FC61E7FCF716FC34E7FCF713FCD2E77E
:10AAA000FCF710FCC3E796F85400FFF75FFDEAE6F9
:10AAB000FCF708FCFCE600BF04EC030034EC0300E8
:10AAC00010BD0300BC2A00203C35002024BD03003B
:10AAD000BE2A00205CBD03008CBD0300A0BD0300A6
:10AAE00000BE0300D8BC0300F8BC0300C4BD0300D3
:10AAF00010B5344B86B0187090B9334B18884FF6A8
:10AB0000FF73984204D01321FFF732FD044600BBC7
:10AB10002E4B032218469A7001F0D6FA06B010BDEB
:10AB20002A4CA37863B908F073FC0028F6D0264BB2
:10AB30001A884FF6FF739A4218D0002006B010BD55
:10AB400094F85400FFF712FD08F062FC0028E5D0ED
:10AB5000EDE71F4B1F482049C01AC008000440F011
:10AB600003002246FBF73EFF2046D7E706A908234D
:10AB700041F8143D0DEB0300012308F051FCE8B946
:10AB8000134B14481549019AC01AC008000440F03C
:10AB900003000823FBF7A0FF02A8019908F0D4FBEB
:10ABA00008B1FCF78FFB002201230321074884F83A
:10ABB000522284F8543201F0A3F8AFE7FCF782FB8D
:10ABC000DEE700BFBC2A0020BE2A00203C35002062
:10ABD00004EC030034EC0300ACBB03005CBD0300D9
:10ABE0002DE9F041A04E3378ACB01BB101202CB060
:10ABF000BDE8F0818846054602F0E8FE002840F0F6
:10AC00000D812CAC002344F8AC3D0120214603F01B
:10AC100035F8002840F0FF80204603F00DF908B118
:10AC2000FCF750FB9DF80030012262F303032CAFC8
:10AC3000032262F3071307F8B03D4246294638461F
:10AC4000FFF79AFC002840F0E3800822002120460C
:10AC500010F04EF9854B019320464FF0C8730293D4
:10AC6000FFF788FC08B1FCF72DFB8149814801F012
:10AC700083FF002840F0C980F7217E4801F094FF4F
:10AC800008B1FCF71FFB00237B4A7C486360214628
:10AC9000A360E360019202F0CDF8002840F0B2809A
:10ACA00000210422384610F023F9754B75480093B3
:10ACB000394602F0A5FA08B1FCF704FBAC220021EA
:10ACC000204610F015F90023022201216E488DF86C
:10ACD00004204FF0060E6D4D8DF80630219322931F
:10ACE000249340226A4BADF85010159021466948D4
:10ACF0008DF807E0CDF87D5023922A9300F07EFF77
:10AD000008B1FCF7DFFA0121624800F073FF1C2252
:10AD10000021204610F0ECF800234FF420304FF4CF
:10AD2000702503215C4A0193ADF812308DF8143080
:10AD300002905A4B039520468DF810100692079307
:10AD400001F01EFB08B1FCF7BDFA08F05BFA002821
:10AD500055D105220021204610F0CAF89DF8043094
:10AD60009DF807109DF8082043F0070303F08703C0
:10AD70006FF3C71341F0030142F003024FF0070ED7
:10AD8000102520468DF804308DF807108DF8082026
:10AD90008DF805E08DF8065008F0BEFA60BB40481B
:10ADA00008F09EFA08B1FCF78DFA3E4B3E4DDFF8F5
:10ADB000E4803E49ED1AED082D0445F003052846D0
:10ADC000FBF796FD3A4A98F802300121117073B9E9
:10ADD00008F01EFB28B1374B1A884FF6FF739A42D2
:10ADE0001FD00123002033702CB0BDE8F08198F80B
:10ADF0005400FFF7BBFBEBE7FCF764FACFE7FCF787
:10AE000061FAA6E7FCF75EFA4AE7FCF75BFA33E77C
:10AE1000FCF758FA19E7FCF755FAFDE6FCF752FA89
:10AE2000EFE63946012308272046009708F0F8FA94
:10AE3000B8B928462049009A0823FBF74DFE204662
:10AE4000009908F081FA08B1FCF73CFA00220123CE
:10AE50000321104888F8522288F8543200F050FF3D
:10AE6000BFE7FCF72FFAE4E7A837002010003C000A
:10AE700085A702009437002025A80200B0370020E3
:10AE8000EDA70200C02A0020B82A0020010100011D
:10AE900029A802003C350020C9A70200A5A5020090
:10AEA000BDAE020004EC030034EC030090BC0300D0
:10AEB000BC2A0020BE2A00205CBD030070B50446F9
:10AEC00086B008F0BDFD204608F000FF2578082D6B
:10AED00018D00C2D14D1484B1B78002B3ED1474B7A
:10AEE00018884FF6FF73984204D01321FFF740FBF8
:10AEF00000286ED1424B032218469A7001F0E4F804
:10AF000006B070BD237CDB07FAD5237A072BF7D177
:10AF10003C4B3D4C3D49E41AE408240444F003044E
:10AF20002046FBF7E5FC06A902AE41F8145D304669
:10AF300001234FF6FF7208F073FA002855D120461E
:10AF40003349019A0823FBF7C7FD3046019908F001
:10AF5000FBF90028D4D0FCF7B5F9D1E7284CA37849
:10AF600093BB08F055FA0028CAD0244B1A884FF634
:10AF7000FF739A42C4D1082306A90DEB030641F8DA
:10AF8000143D3046012308F04BFA88BB1D4B1E4888
:10AF90001F49019AC01AC008000440F003000823AA
:10AFA000FBF79AFD3046019908F0CEF908B1FCF79D
:10AFB00089F9002201230321114884F8522284F8E0
:10AFC000543200F09DFE9BE794F85400FFF7CEFA50
:10AFD000C7E70C4A0C4B0F499B1ADB081B040246BF
:10AFE00043F00300FBF7FEFC8AE7FCF76BF9A6E7EA
:10AFF000FCF768F9CAE700BFBC2A0020BE2A00207F
:10B000003C35002004EC030034EC030024BE0300B4
:10B010005CBD0300ACBB030070B54C4E30884FF6EE
:10B02000FF73984286B005D01321FFF7A1FA0446BA
:10B0300000284BD108F0ECF90446B0B1444B454D23
:10B040004549ED1AED082D0445F003052846FBF7A8
:10B050004FFC08F06BFB0446A0B1284622463F494E
:10B06000FBF7C0FC204606B070BD394B39483C495F
:10B07000C01AC008000440F00300FBF739FC20466A
:10B0800006B070BD374B1B788BB930884FF6FF7315
:10B09000984205D01321FFF76BFA044600284AD1E5
:10B0A000314B032218469A7001F00EF8E8E72E4C57
:10B0B000A378002B3AD108F0ABF90028E0D0328811
:10B0C0004FF6FF739A420FD00020D9E7204B21485A
:10B0D0002649C01AC008000440F003002246FBF7CE
:10B0E00081FC204606B070BD06A9082341F8143D36
:10B0F0000DEB0300012308F093F918BB28461C4907
:10B10000019A0823FBF7E8FC02A8019908F01CF952
:10B1100008B1FCF7D7F8002201230321124884F874
:10B12000522284F8543200F0EBFDA9E794F8540061
:10B13000FFF71CFABFE7284622460E49FBF752FCF0
:10B1400020469DE7FCF7BEF8D8E700BFBE2A0020E6
:10B1500004EC030034EC030024BC030034BC030003
:10B1600060BC0300BC2A00203C350020E8BB030083
:10B170005CBD0300ACBB030008B51A4802F066FAD8
:10B1800019491A481A4B1B4A02F0DAFB4FF40041E6
:10B190000020FBF7E5F908BBFBF766F9FCF758FB65
:10B1A000C8B900210120FFF771F988B9FDF72CFC1F
:10B1B00058B902F0F7FB0CF087FC08B1FCF782F8F5
:10B1C000FBF75EFAFDF736FCF5E7FCF77BF8F0E7F6
:10B1D000FCF778F8EAE7FCF775F8E2E7FCF772F8B5
:10B1E000DAE700BF61A702008DA50200E1AB020013
:10B1F00019B00200F1AA02002DE9F84F4400DFF86F
:10B200007CA126180AEBC6068146D6F82C80B8F138
:10B21000010F8B46174661D038D3B8F1020F30D1F9
:10B2200000F1010909EB4909756A4FEAC9094FF0B4
:10B2300000081CE0326A641BBC420AEB0901234689
:10B24000A2EB050428BF3B469C42486828BF1C4629
:10B250002844594622460FF040FE336A25449D4259
:10B2600008BF00253F1BA044A34475620BD0B36AFE
:10B27000AB4203F1FF34DDD8326A1344013B5C1B5F
:10B28000DAE74FF000084046BDE8F88FB36A756A08
:10B29000AB429CBF326A9B18013B5B1B9F42F2D8BA
:10B2A00004440AEBC40400F10109266A761B09EB89
:10B2B0004909B7420AEBC90A56D3DAF80400324604
:10B2C0002844BD1B0FF009FEDAF804000BEB060161
:10B2D0002A460FF002FEB8466562D4E7B36A756A83
:10B2E000AB4226D903F1FF38366AA8EB0508B8450A
:10B2F00028BFB846761BB04523D309F1010707EBF9
:10B3000047070AEBC707A1447868324659462844E4
:10B310000AEBC90AA8EB06050FF0DFFD78680BEB16
:10B3200006012A460FF0D9FDCAF824504046BDE870
:10B33000F88F366A03EB060808F1FF38A8EB05081A
:10B34000D5E709F1010303EB43030AEBC303A1446F
:10B3500058680AEBC90A28445946424645440FF04A
:10B36000BCFDCAF824508EE7DAF804003A462844B7
:10B370003D440FF0B2FDB846656284E7FC680020EA
:10B38000F8B5114C114B124AE3614FF400750023DC
:10B39000104FA36210266362E362A3656365E365F1
:10B3A0000D492562A2610225A264E01DE7642665BD
:10B3B000256165610FF060FE204608490FF05CFED4
:10B3C0002023A371F8BD00BFFC680020E0370020F7
:10B3D00058BE0300D037002064BE030068BE0300DF
:10B3E0006DDF704779DF70477DDF704764DF70473E
:10B3F0002DE9F04F83B004880C9FBDF83490B7F866
:10B4000000A0002C4CD09846002316468B460546DB
:10B410001C4603E02A880134A24224DD6A6852F8FF
:10B420002400019000220DF1030101A8FFF7DEFFC7
:10B4300010BB9DF80320B242ECD103B33A889319B4
:10B440004B4518DC42440DF1030101A80123FFF72D
:10B45000CDFF88B939889DF803200A443A802A88AC
:10B460000134A242DADCDBB13B88013BA3EB0A03E7
:10B470009BB2FF2B12D90C2003B0BDE8F08F3B88A4
:10B480005A1C334402334B4592B2F4DC3A8008F83C
:10B4900002B03A88013292B23A80D3E708F80A3013
:10B4A000002003B0BDE8F08F2DE9F0470023178896
:10B4B000138090F82D3086B0144605460E46002BBA
:10B4C00049D1AA78002A70D1EA78002A2ED16A6878
:10B4D000A2B1D91CB94225D8022192F90020F15419
:10B4E000238801339BB20A212380F154238801333E
:10B4F0009BB22380F2542388013323802B89002BB5
:10B5000040F030812B8A002B40F045812B8B002BA3
:10B5100040F05A812B6A002B00F0A7802288911DF1
:10B52000B94262D90C2006B0BDE8F087D91CB942F7
:10B53000F8D80221F154238801339BB201212380E2
:10B54000F15423880B449BB22380F25423880B448C
:10B550009BB22380BBE7082FE4D904A8FFF740FF84
:10B560000028E0D113880822CA54238801339BB2F3
:10B570001B222380CA542088013080B220800622FA
:10B5800008440DF111010FF0A8FC23889DF810204C
:10B5900006339BB212F0FE0218BF01222380F25440
:10B5A000238801339BB223808BE70433BB42B9D895
:10B5B00004A8FFF717FF0028B5D12388BDF8102095
:10B5C0000321F154238801339BB219212380F154C4
:10B5D000238801339BB2F1182380F254120A4A7077
:10B5E000238802339BB223806EE71988052940F235
:10B5F000B5806FF4486801EB080080B24FF27D3EE1
:10B60000704540F2AB805888052840F2A7806FF45F
:10B61000486C84441FFA8CFCF44540F29F804FF63E
:10B62000FF7E714504D0704502D0814200F29680C1
:10B630000521B1542288013292B212212280B154E4
:10B640002288013292B222801988B1543244090A08
:10B6500051702288023292B222805B88B354324405
:10B660001B0A53702388023323806B6A002B30D06F
:10B670009888B4F800E0811C0EF102020A44BA4234
:10B680003FF650AFFE293FF64DAF033006F80E00EF
:10B690002288013292B2FF212280B15422880132E5
:10B6A00092B222801988B1543244090A517020881C
:10B6B000023080B220809A885AB199680393002999
:10B6C0004CD030440FF009FC039B9A882388134424
:10B6D000238095F82C30002B40F08F8028780028AC
:10B6E0003FF421AF2B88012B38D023889A1CBA4213
:10B6F0003FF618AF012805D16978023119448F420D
:10B70000FFF410AF023FFB1A06A99BB221F8083DD7
:10B71000B018FFF769FE00287FF405AF2A78022AE7
:10B7200000F0BB806878BDF810108842C0F0B1808E
:10B730008B42C0F0AE800B460921FE2B3FF6F2AEE5
:10B740002288581CB0542288013292B22280B1540F
:10B7500022880132134423800020E4E6072006B04B
:10B76000BDE8F08705F1080802228DE89000404608
:10B7700011463346FFF73CFE00287FF4D4AE8DE837
:10B7800090004046334610220621FFF731FE002884
:10B790003FF4B8AEC7E605F110088DE890004046CA
:10B7A000334602220321FFF723FE00287FF4BBAEBD
:10B7B0008DE890004046334610220721FFF718FE1F
:10B7C00000283FF4A3AEAEE605F118088DE890001E
:10B7D0004046334602221421FFF70AFE00287FF478
:10B7E000A2AE8DE890004046334610221521FFF7A7
:10B7F000FFFD00283FF48EAE95E6D5F82880B8F11D
:10B80000000FABD0B8F804200232FE2A3FF68AAE11
:10B8100023884FF000094FF0160A0132F2542388B2
:10B8200001339BB2238006F803A0238801339BB227
:10B830002380B8F80020F2543344120A5A70238847
:10B8400002339BB22380B8F80410F0180A4661B1A5
:10B85000D8F808301946002B80D00FF03EFBB8F81E
:10B860000420238813449BB2238009F1010995F831
:10B870002C205FFA89F94A4509EB49087FF62EAF7B
:10B88000AA6A02EB8808B8F804200232FE2AC4D95A
:10B8900048E6012A08D008214FE7BDF8102093425E
:10B8A000F9D31346092148E78342F4D3034608211C
:10B8B00043E700BFD8B130B4437893421BD0B9B14D
:10B8C0000024234601E0994212D9045D0134234447
:10B8D0009BB2C5181C466D789542F4D1994207D9A0
:10B8E000025D0233012A9BB202D030BC184470477B
:10B8F000002030BCFBE700242346EFE772DF7047EF
:10B9000073DF704774DF704770B5044600F24A2653
:10B9100081700D463046072200210FF0E9FAE388D6
:10B9200013B1A378012B2AD0E3792BBB94F84B32C7
:10B93000002B40F0B78094F84C32002B40F0B280DE
:10B9400094F84D32002B40F0AD8094F84E32002B2D
:10B9500040F0A88094F84F32002B40F0A38094F878
:10B9600050321A1C18BF01226B1E032B00F23C81BF
:10B97000DFE803F00F571841A378022BD6D1636B91
:10B98000002B00F0FC80012284F851220820984707
:10B99000CCE7A379002B44D094F82430002B40D17D
:10B9A000002A44D1237A33B3636B0322A2704BBBCA
:10B9B000002384F8533204F13C0518220021284664
:10B9C0000FF096FAE26A0123511E994284F83C3046
:10B9D0002FD994F8242084F85130002A5FD1A3781D
:10B9E00000211A4684F85010042B4ED8DFE803F0EB
:10B9F000735CB6C1BB00657ACDB1636B0422A270E3
:10BA0000002BD5D06279002AD2D094F85222002A95
:10BA1000CED1012184F8542284F85312072098478C
:10BA2000C9E7E379002BBDD0002ABBD00225A57061
:10BA3000BEE794F8243084F85120002BCFD0A36ABD
:10BA400084F85230A37800211A4684F85010042B51
:10BA50001BD8DFE803F04029730344006269A16941
:10BA600062640622A4F8481084F83C20627922B16E
:10BA700094F85222002A00F09580032284F83120A5
:10BA800004F50D76C4F844621A46002A40F0AF80EF
:10BA9000636B13B194F831009847002070BD84F8AF
:10BAA0005230CFE701225FE70023012002218022EC
:10BAB000266484F83100C4F84432636484F83C108E
:10BAC000A4F8482000212A4604F15400FFF716FF8D
:10BAD00000285DD070BD002384F83130D8E7E269DA
